{
  "address": "0xEf2BFDdC12ddC79666fe628EDcdC692525bf994f",
  "abi": [
    {
      "inputs": [
        {
          "internalType": "address",
          "name": "exampleExternalContractAddress",
          "type": "address"
        }
      ],
      "stateMutability": "nonpayable",
      "type": "constructor"
    },
    {
      "anonymous": false,
      "inputs": [
        {
          "indexed": false,
          "internalType": "bool",
          "name": "success",
          "type": "bool"
        },
        {
          "indexed": false,
          "internalType": "uint256",
          "name": "balance",
          "type": "uint256"
        }
      ],
      "name": "Execute",
      "type": "event"
    },
    {
      "anonymous": false,
      "inputs": [
        {
          "indexed": true,
          "internalType": "address",
          "name": "user",
          "type": "address"
        },
        {
          "indexed": false,
          "internalType": "uint256",
          "name": "amount",
          "type": "uint256"
        }
      ],
      "name": "Stake",
      "type": "event"
    },
    {
      "inputs": [
        {
          "internalType": "address",
          "name": "",
          "type": "address"
        }
      ],
      "name": "balances",
      "outputs": [
        {
          "internalType": "uint256",
          "name": "",
          "type": "uint256"
        }
      ],
      "stateMutability": "view",
      "type": "function"
    },
    {
      "inputs": [],
      "name": "deadline",
      "outputs": [
        {
          "internalType": "uint256",
          "name": "",
          "type": "uint256"
        }
      ],
      "stateMutability": "view",
      "type": "function"
    },
    {
      "inputs": [],
      "name": "exampleExternalContract",
      "outputs": [
        {
          "internalType": "contract ExampleExternalContract",
          "name": "",
          "type": "address"
        }
      ],
      "stateMutability": "view",
      "type": "function"
    },
    {
      "inputs": [],
      "name": "execute",
      "outputs": [],
      "stateMutability": "nonpayable",
      "type": "function"
    },
    {
      "inputs": [],
      "name": "openForWithdraw",
      "outputs": [
        {
          "internalType": "bool",
          "name": "",
          "type": "bool"
        }
      ],
      "stateMutability": "view",
      "type": "function"
    },
    {
      "inputs": [],
      "name": "stake",
      "outputs": [],
      "stateMutability": "payable",
      "type": "function"
    },
    {
      "inputs": [],
      "name": "threshold",
      "outputs": [
        {
          "internalType": "uint256",
          "name": "",
          "type": "uint256"
        }
      ],
      "stateMutability": "view",
      "type": "function"
    },
    {
      "inputs": [],
      "name": "timeLeft",
      "outputs": [
        {
          "internalType": "uint256",
          "name": "",
          "type": "uint256"
        }
      ],
      "stateMutability": "view",
      "type": "function"
    },
    {
      "inputs": [],
      "name": "withdraw",
      "outputs": [],
      "stateMutability": "nonpayable",
      "type": "function"
    },
    {
      "stateMutability": "payable",
      "type": "receive"
    }
  ],
  "transactionHash": "0x9a7740bef8b3b763e8706afff8ede06fe146f43b1b7d7accde6270739cfefe9b",
  "args": [
    "0x1875b62A57757f0FcE281E2E30D4f1178865b03e"
  ],
  "numDeployments": 1,
  "solcInputHash": "4ebc42ab4eec98ec7e5798f380c37ab0",
  "bytecode": "0x6080604052610011426203f480610064565b60025534801561002057600080fd5b506040516109c73803806109c783398101604081905261003f9161008b565b600080546001600160a01b0319166001600160a01b03929092169190911790556100bb565b8082018082111561008557634e487b7160e01b600052601160045260246000fd5b92915050565b60006020828403121561009d57600080fd5b81516001600160a01b03811681146100b457600080fd5b9392505050565b6108fd806100ca6000396000f3fe60806040526004361061008a5760003560e01c80633ccfd60b116100595780633ccfd60b146101f557806342cde4e81461020a57806361461954146102265780639876a6431461023b5780639f75f2271461026557600080fd5b80631300a6d11461018a57806327e235e3146101b257806329dcb0cf146101df5780633a4b66f11461017b57600080fd5b366101855760008054906101000a90046001600160a01b03166001600160a01b0316639d9a7fe96040518163ffffffff1660e01b8152600401602060405180830381865afa1580156100e0573d6000803e3d6000fd5b505050506040513d601f19601f8201168201806040525081019061010491906107e1565b80610111575060035460ff165b1561017b5760405162461bcd60e51b815260206004820152602f60248201527f436f6e74726163742069732066696e616c697a65643b2063616e6e6f7420616360448201526e31b2b83a103732bb90333ab732399760891b60648201526084015b60405180910390fd5b61018361029d565b005b600080fd5b34801561019657600080fd5b5061019f610348565b6040519081526020015b60405180910390f35b3480156101be57600080fd5b5061019f6101cd36600461080a565b60016020526000908152604090205481565b3480156101eb57600080fd5b5061019f60025481565b34801561020157600080fd5b5061018361036c565b34801561021657600080fd5b5061019f670de0b6b3a764000081565b34801561023257600080fd5b50610183610591565b34801561024757600080fd5b506003546102559060ff1681565b60405190151581526020016101a9565b34801561027157600080fd5b50600054610285906001600160a01b031681565b6040516001600160a01b0390911681526020016101a9565b600034116102ed5760405162461bcd60e51b815260206004820152601c60248201527f4d757374207374616b65206120706f73697469766520616d6f756e74000000006044820152606401610172565b336000908152600160205260408120805434929061030c908490610849565b909155505060405134815233907febedb8b3c678666e7f36970bc8f57abf6d8fa2e828c0da91ea5b75bf68ed101a9060200160405180910390a2565b600060025442106103595750600090565b426002546103679190610862565b905090565b60008054906101000a90046001600160a01b03166001600160a01b0316639d9a7fe96040518163ffffffff1660e01b8152600401602060405180830381865afa1580156103bd573d6000803e3d6000fd5b505050506040513d601f19601f820116820180604052508101906103e191906107e1565b156103fe5760405162461bcd60e51b815260040161017290610875565b6002544210156104475760405162461bcd60e51b8152602060048201526014602482015273111958591b1a5b99481b9bdd081c995858da195960621b6044820152606401610172565b60035460ff166104995760405162461bcd60e51b815260206004820152601760248201527f5769746864726177616c73206e6f7420616c6c6f7765640000000000000000006044820152606401610172565b33600090815260016020526040902054806104ef5760405162461bcd60e51b81526020600482015260166024820152754e6f2062616c616e636520746f20776974686472617760501b6044820152606401610172565b336000818152600160205260408082208290555190919083908381818185875af1925050503d8060008114610540576040519150601f19603f3d011682016040523d82523d6000602084013e610545565b606091505b505090508061058d5760405162461bcd60e51b81526020600482015260146024820152732330b4b632b2103a379039b2b7321022ba3432b960611b6044820152606401610172565b5050565b60008054906101000a90046001600160a01b03166001600160a01b0316639d9a7fe96040518163ffffffff1660e01b8152600401602060405180830381865afa1580156105e2573d6000803e3d6000fd5b505050506040513d601f19601f8201168201806040525081019061060691906107e1565b156106235760405162461bcd60e51b815260040161017290610875565b60025442101561066c5760405162461bcd60e51b8152602060048201526014602482015273111958591b1a5b99481b9bdd081c995858da195960621b6044820152606401610172565b60008054906101000a90046001600160a01b03166001600160a01b0316639d9a7fe96040518163ffffffff1660e01b8152600401602060405180830381865afa1580156106bd573d6000803e3d6000fd5b505050506040513d601f19601f820116820180604052508101906106e191906107e1565b156107215760405162461bcd60e51b815260206004820152601060248201526f105b1c9958591e48195e1958dd5d195960821b6044820152606401610172565b670de0b6b3a764000047106107995760008054906101000a90046001600160a01b03166001600160a01b031663522e1177476040518263ffffffff1660e01b81526004016000604051808303818588803b15801561077e57600080fd5b505af1158015610792573d6000803e3d6000fd5b5050505050565b6003805460ff1916600117905560408051600081524760208201527fc1e8f58bf1874172646c1654886e717826133812a5cf2377042736e5ee1788dc910160405180910390a1565b6000602082840312156107f357600080fd5b8151801515811461080357600080fd5b9392505050565b60006020828403121561081c57600080fd5b81356001600160a01b038116811461080357600080fd5b634e487b7160e01b600052601160045260246000fd5b8082018082111561085c5761085c610833565b92915050565b8181038181111561085c5761085c610833565b60208082526032908201527f4f7065726174696f6e206e6f7420616c6c6f7765643b20636f6e74726163742060408201527130b63932b0b23c9031b7b6b83632ba32b21760711b60608201526080019056fea2646970667358221220811752982f5bda4bf795aae964a8a2e91c804c02dfe114f1b81c40dc27f57aea64736f6c63430008140033",
  "devdoc": {
    "details": "Allows users to withdraw only their own staked balance after the deadline if withdrawals are open.",
    "kind": "dev",
    "methods": {},
    "version": 1
  },
  "userdoc": {
    "kind": "user",
    "methods": {},
    "version": 1
  },
  "storageLayout": {
    "storage": [
      {
        "astId": 20,
        "contract": "contracts/Staker.sol:Staker",
        "label": "exampleExternalContract",
        "offset": 0,
        "slot": "0",
        "type": "t_contract(ExampleExternalContract)12"
      },
      {
        "astId": 36,
        "contract": "contracts/Staker.sol:Staker",
        "label": "balances",
        "offset": 0,
        "slot": "1",
        "type": "t_mapping(t_address,t_uint256)"
      },
      {
        "astId": 45,
        "contract": "contracts/Staker.sol:Staker",
        "label": "deadline",
        "offset": 0,
        "slot": "2",
        "type": "t_uint256"
      },
      {
        "astId": 47,
        "contract": "contracts/Staker.sol:Staker",
        "label": "openForWithdraw",
        "offset": 0,
        "slot": "3",
        "type": "t_bool"
      }
    ],
    "types": {
      "t_address": {
        "encoding": "inplace",
        "label": "address",
        "numberOfBytes": "20"
      },
      "t_bool": {
        "encoding": "inplace",
        "label": "bool",
        "numberOfBytes": "1"
      },
      "t_contract(ExampleExternalContract)12": {
        "encoding": "inplace",
        "label": "contract ExampleExternalContract",
        "numberOfBytes": "20"
      },
      "t_mapping(t_address,t_uint256)": {
        "encoding": "mapping",
        "key": "t_address",
        "label": "mapping(address => uint256)",
        "numberOfBytes": "32",
        "value": "t_uint256"
      },
      "t_uint256": {
        "encoding": "inplace",
        "label": "uint256",
        "numberOfBytes": "32"
      }
    }
  }
}